{
  "_format": "hh-sol-artifact-1",
  "contractName": "MyEpicNFT",
  "sourceName": "contracts/MyEpicNFT.sol",
  "abi": [
    {
      "inputs": [],
      "stateMutability": "nonpayable",
      "type": "constructor"
    },
    {
      "anonymous": false,
      "inputs": [
        {
          "indexed": true,
          "internalType": "address",
          "name": "owner",
          "type": "address"
        },
        {
          "indexed": true,
          "internalType": "address",
          "name": "approved",
          "type": "address"
        },
        {
          "indexed": true,
          "internalType": "uint256",
          "name": "tokenId",
          "type": "uint256"
        }
      ],
      "name": "Approval",
      "type": "event"
    },
    {
      "anonymous": false,
      "inputs": [
        {
          "indexed": true,
          "internalType": "address",
          "name": "owner",
          "type": "address"
        },
        {
          "indexed": true,
          "internalType": "address",
          "name": "operator",
          "type": "address"
        },
        {
          "indexed": false,
          "internalType": "bool",
          "name": "approved",
          "type": "bool"
        }
      ],
      "name": "ApprovalForAll",
      "type": "event"
    },
    {
      "anonymous": false,
      "inputs": [
        {
          "indexed": false,
          "internalType": "address",
          "name": "sender",
          "type": "address"
        },
        {
          "indexed": false,
          "internalType": "uint256",
          "name": "tokenId",
          "type": "uint256"
        }
      ],
      "name": "NewEpicNFTMinted",
      "type": "event"
    },
    {
      "anonymous": false,
      "inputs": [
        {
          "indexed": true,
          "internalType": "address",
          "name": "from",
          "type": "address"
        },
        {
          "indexed": true,
          "internalType": "address",
          "name": "to",
          "type": "address"
        },
        {
          "indexed": true,
          "internalType": "uint256",
          "name": "tokenId",
          "type": "uint256"
        }
      ],
      "name": "Transfer",
      "type": "event"
    },
    {
      "inputs": [
        {
          "internalType": "address",
          "name": "to",
          "type": "address"
        },
        {
          "internalType": "uint256",
          "name": "tokenId",
          "type": "uint256"
        }
      ],
      "name": "approve",
      "outputs": [],
      "stateMutability": "nonpayable",
      "type": "function"
    },
    {
      "inputs": [
        {
          "internalType": "address",
          "name": "owner",
          "type": "address"
        }
      ],
      "name": "balanceOf",
      "outputs": [
        {
          "internalType": "uint256",
          "name": "",
          "type": "uint256"
        }
      ],
      "stateMutability": "view",
      "type": "function"
    },
    {
      "inputs": [
        {
          "internalType": "uint256",
          "name": "tokenId",
          "type": "uint256"
        }
      ],
      "name": "getApproved",
      "outputs": [
        {
          "internalType": "address",
          "name": "",
          "type": "address"
        }
      ],
      "stateMutability": "view",
      "type": "function"
    },
    {
      "inputs": [],
      "name": "getTotalNFTsMintedSoFar",
      "outputs": [
        {
          "internalType": "uint256",
          "name": "",
          "type": "uint256"
        }
      ],
      "stateMutability": "view",
      "type": "function"
    },
    {
      "inputs": [
        {
          "internalType": "address",
          "name": "owner",
          "type": "address"
        },
        {
          "internalType": "address",
          "name": "operator",
          "type": "address"
        }
      ],
      "name": "isApprovedForAll",
      "outputs": [
        {
          "internalType": "bool",
          "name": "",
          "type": "bool"
        }
      ],
      "stateMutability": "view",
      "type": "function"
    },
    {
      "inputs": [],
      "name": "makeAnEpicNFT",
      "outputs": [],
      "stateMutability": "nonpayable",
      "type": "function"
    },
    {
      "inputs": [],
      "name": "name",
      "outputs": [
        {
          "internalType": "string",
          "name": "",
          "type": "string"
        }
      ],
      "stateMutability": "view",
      "type": "function"
    },
    {
      "inputs": [
        {
          "internalType": "uint256",
          "name": "tokenId",
          "type": "uint256"
        }
      ],
      "name": "ownerOf",
      "outputs": [
        {
          "internalType": "address",
          "name": "",
          "type": "address"
        }
      ],
      "stateMutability": "view",
      "type": "function"
    },
    {
      "inputs": [
        {
          "internalType": "uint256",
          "name": "_tokenId",
          "type": "uint256"
        }
      ],
      "name": "pickRandomColor",
      "outputs": [
        {
          "internalType": "string",
          "name": "",
          "type": "string"
        }
      ],
      "stateMutability": "view",
      "type": "function"
    },
    {
      "inputs": [
        {
          "internalType": "uint256",
          "name": "_tokenId",
          "type": "uint256"
        }
      ],
      "name": "pickRandomFirstWord",
      "outputs": [
        {
          "internalType": "string",
          "name": "",
          "type": "string"
        }
      ],
      "stateMutability": "view",
      "type": "function"
    },
    {
      "inputs": [
        {
          "internalType": "uint256",
          "name": "_tokenId",
          "type": "uint256"
        }
      ],
      "name": "pickRandomSecondWord",
      "outputs": [
        {
          "internalType": "string",
          "name": "",
          "type": "string"
        }
      ],
      "stateMutability": "view",
      "type": "function"
    },
    {
      "inputs": [
        {
          "internalType": "uint256",
          "name": "_tokenId",
          "type": "uint256"
        }
      ],
      "name": "pickRandomThirdWord",
      "outputs": [
        {
          "internalType": "string",
          "name": "",
          "type": "string"
        }
      ],
      "stateMutability": "view",
      "type": "function"
    },
    {
      "inputs": [
        {
          "internalType": "address",
          "name": "from",
          "type": "address"
        },
        {
          "internalType": "address",
          "name": "to",
          "type": "address"
        },
        {
          "internalType": "uint256",
          "name": "tokenId",
          "type": "uint256"
        }
      ],
      "name": "safeTransferFrom",
      "outputs": [],
      "stateMutability": "nonpayable",
      "type": "function"
    },
    {
      "inputs": [
        {
          "internalType": "address",
          "name": "from",
          "type": "address"
        },
        {
          "internalType": "address",
          "name": "to",
          "type": "address"
        },
        {
          "internalType": "uint256",
          "name": "tokenId",
          "type": "uint256"
        },
        {
          "internalType": "bytes",
          "name": "_data",
          "type": "bytes"
        }
      ],
      "name": "safeTransferFrom",
      "outputs": [],
      "stateMutability": "nonpayable",
      "type": "function"
    },
    {
      "inputs": [
        {
          "internalType": "address",
          "name": "operator",
          "type": "address"
        },
        {
          "internalType": "bool",
          "name": "approved",
          "type": "bool"
        }
      ],
      "name": "setApprovalForAll",
      "outputs": [],
      "stateMutability": "nonpayable",
      "type": "function"
    },
    {
      "inputs": [
        {
          "internalType": "bytes4",
          "name": "interfaceId",
          "type": "bytes4"
        }
      ],
      "name": "supportsInterface",
      "outputs": [
        {
          "internalType": "bool",
          "name": "",
          "type": "bool"
        }
      ],
      "stateMutability": "view",
      "type": "function"
    },
    {
      "inputs": [],
      "name": "symbol",
      "outputs": [
        {
          "internalType": "string",
          "name": "",
          "type": "string"
        }
      ],
      "stateMutability": "view",
      "type": "function"
    },
    {
      "inputs": [
        {
          "internalType": "uint256",
          "name": "tokenId",
          "type": "uint256"
        }
      ],
      "name": "tokenURI",
      "outputs": [
        {
          "internalType": "string",
          "name": "",
          "type": "string"
        }
      ],
      "stateMutability": "view",
      "type": "function"
    },
    {
      "inputs": [
        {
          "internalType": "address",
          "name": "from",
          "type": "address"
        },
        {
          "internalType": "address",
          "name": "to",
          "type": "address"
        },
        {
          "internalType": "uint256",
          "name": "tokenId",
          "type": "uint256"
        }
      ],
      "name": "transferFrom",
      "outputs": [],
      "stateMutability": "nonpayable",
      "type": "function"
    }
  ],
  "bytecode": "0x6080604052603260085560405180610100016040528060d381526020016200508d60d39139600990805190602001906200003b929190620011e2565b506040518060800160405280605681526020016200516060569139600a90805190602001906200006d929190620011e2565b506040518061028001604052806040518060400160405280600681526020017f637572766564000000000000000000000000000000000000000000000000000081525081526020016040518060400160405280600781526020017f6c6f75746973680000000000000000000000000000000000000000000000000081525081526020016040518060400160405280600881526020017f6d6572636966756c00000000000000000000000000000000000000000000000081525081526020016040518060400160405280600481526020017f6c7573680000000000000000000000000000000000000000000000000000000081525081526020016040518060400160405280600781526020017f68656c7066756c0000000000000000000000000000000000000000000000000081525081526020016040518060400160405280600681526020017f666565626c65000000000000000000000000000000000000000000000000000081525081526020016040518060400160405280600d81526020017f6d6174657269616c69737469630000000000000000000000000000000000000081525081526020016040518060400160405280600981526020017f6e6563657373617279000000000000000000000000000000000000000000000081525081526020016040518060400160405280600781526020017f6964696f7469630000000000000000000000000000000000000000000000000081525081526020016040518060400160405280600681526020017f736872696c6c000000000000000000000000000000000000000000000000000081525081526020016040518060400160405280600681526020017f647265617279000000000000000000000000000000000000000000000000000081525081526020016040518060400160405280600881526020017f666c616772616e7400000000000000000000000000000000000000000000000081525081526020016040518060400160405280600581526020017f73686f727400000000000000000000000000000000000000000000000000000081525081526020016040518060400160405280600681526020017f63726176656e000000000000000000000000000000000000000000000000000081525081526020016040518060400160405280600681526020017f6d6967687479000000000000000000000000000000000000000000000000000081525081526020016040518060400160405280600781526020017f656c61737469630000000000000000000000000000000000000000000000000081525081526020016040518060400160405280600981526020017f726563657074697665000000000000000000000000000000000000000000000081525081526020016040518060400160405280600781526020017f6d656c6f6469630000000000000000000000000000000000000000000000000081525081526020016040518060400160405280600581526020017f6561726c7900000000000000000000000000000000000000000000000000000081525081526020016040518060400160405280600781526020017f756e686170707900000000000000000000000000000000000000000000000000815250815250600b9060146200052692919062001273565b506040518061028001604052806040518060400160405280600981526020017f736869766572696e67000000000000000000000000000000000000000000000081525081526020016040518060400160405280600381526020017f696379000000000000000000000000000000000000000000000000000000000081525081526020016040518060400160405280600681526020017f7075626c6963000000000000000000000000000000000000000000000000000081525081526020016040518060400160405280600481526020017f627573790000000000000000000000000000000000000000000000000000000081525081526020016040518060400160405280600681526020017f616369646963000000000000000000000000000000000000000000000000000081525081526020016040518060400160405280600681526020017f6f72616e6765000000000000000000000000000000000000000000000000000081525081526020016040518060400160405280600581526020017f736173737900000000000000000000000000000000000000000000000000000081525081526020016040518060400160405280600a81526020017f696d70726573736976650000000000000000000000000000000000000000000081525081526020016040518060400160405280600681526020017f6f6166697368000000000000000000000000000000000000000000000000000081525081526020016040518060400160405280600c81526020017f646973616772656561626c65000000000000000000000000000000000000000081525081526020016040518060400160405280600581526020017f66616e637900000000000000000000000000000000000000000000000000000081525081526020016040518060400160405280600481526020017f646565700000000000000000000000000000000000000000000000000000000081525081526020016040518060400160405280600681526020017f666565626c65000000000000000000000000000000000000000000000000000081525081526020016040518060400160405280600381526020017f736978000000000000000000000000000000000000000000000000000000000081525081526020016040518060400160405280600881526020017f676c65616d696e6700000000000000000000000000000000000000000000000081525081526020016040518060400160405280600881526020017f66616d696c69617200000000000000000000000000000000000000000000000081525081526020016040518060400160405280600481526020017f7765616b0000000000000000000000000000000000000000000000000000000081525081526020016040518060400160405280600681526020017f677261746973000000000000000000000000000000000000000000000000000081525081526020016040518060400160405280600781526020017f6265727365726b0000000000000000000000000000000000000000000000000081525081526020016040518060400160405280600781526020017f6665737469766500000000000000000000000000000000000000000000000000815250815250600c906014620009df92919062001273565b506040518061028001604052806040518060400160405280600981526020017f736563726574617279000000000000000000000000000000000000000000000081525081526020016040518060400160405280600881526020017f6469726563746f7200000000000000000000000000000000000000000000000081525081526020016040518060400160405280600b81526020017f74656d706572617475726500000000000000000000000000000000000000000081525081526020016040518060400160405280600481526020017f646174610000000000000000000000000000000000000000000000000000000081525081526020016040518060400160405280600a81526020017f656d706c6f796d656e740000000000000000000000000000000000000000000081525081526020016040518060400160405280600881526020017f7072696f7269747900000000000000000000000000000000000000000000000081525081526020016040518060400160405280600881526020017f70726573656e636500000000000000000000000000000000000000000000000081525081526020016040518060400160405280600781526020017f6d6573736167650000000000000000000000000000000000000000000000000081525081526020016040518060400160405280600781526020017f76656869636c650000000000000000000000000000000000000000000000000081525081526020016040518060400160405280600581526020017f7468696e6700000000000000000000000000000000000000000000000000000081525081526020016040518060400160405280600481526020017f796561720000000000000000000000000000000000000000000000000000000081525081526020016040518060400160405280600a81526020017f617373697374616e63650000000000000000000000000000000000000000000081525081526020016040518060400160405280600481526020017f6769726c0000000000000000000000000000000000000000000000000000000081525081526020016040518060400160405280600681526020017f6c656e677468000000000000000000000000000000000000000000000000000081525081526020016040518060400160405280600a81526020017f636f6e6e656374696f6e0000000000000000000000000000000000000000000081525081526020016040518060400160405280600681526020017f636f7573696e000000000000000000000000000000000000000000000000000081525081526020016040518060400160405280600581526020017f686f74656c00000000000000000000000000000000000000000000000000000081525081526020016040518060400160405280600781526020017f636c6f746865730000000000000000000000000000000000000000000000000081525081526020016040518060400160405280600681526020017f6d656d6f7279000000000000000000000000000000000000000000000000000081525081526020016040518060400160405280600781526020017f73747564656e7400000000000000000000000000000000000000000000000000815250815250600d90601462000e9892919062001273565b506040518060c001604052806040518060400160405280600381526020017f726564000000000000000000000000000000000000000000000000000000000081525081526020016040518060400160405280600781526020017f233038433241380000000000000000000000000000000000000000000000000081525081526020016040518060400160405280600581526020017f626c61636b00000000000000000000000000000000000000000000000000000081525081526020016040518060400160405280600681526020017f79656c6c6f77000000000000000000000000000000000000000000000000000081525081526020016040518060400160405280600481526020017f626c75650000000000000000000000000000000000000000000000000000000081525081526020016040518060400160405280600581526020017f677265656e000000000000000000000000000000000000000000000000000000815250815250600e90600662001016929190620012da565b503480156200102457600080fd5b506040518060400160405280600981526020017f5371756172654e465400000000000000000000000000000000000000000000008152506040518060400160405280600681526020017f53515541524500000000000000000000000000000000000000000000000000008152508160009080519060200190620010a9929190620011e2565b508060019080519060200190620010c2929190620011e2565b505050620011106040518060400160405280601e81526020017f54686973206973206d79204e465420636f6e74726163742e20436f6f6c2100008152506200111660201b620014111760201c565b620014fb565b620011b6816040516024016200112d91906200140f565b6040516020818303038152906040527f41304fac000000000000000000000000000000000000000000000000000000007bffffffffffffffffffffffffffffffffffffffffffffffffffffffff19166020820180517bffffffffffffffffffffffffffffffffffffffffffffffffffffffff8381831617835250505050620011b960201b60201c565b50565b60008151905060006a636f6e736f6c652e6c6f679050602083016000808483855afa5050505050565b828054620011f09062001485565b90600052602060002090601f01602090048101928262001214576000855562001260565b82601f106200122f57805160ff191683800117855562001260565b8280016001018555821562001260579182015b828111156200125f57825182559160200191906001019062001242565b5b5090506200126f919062001341565b5090565b828054828255906000526020600020908101928215620012c7579160200282015b82811115620012c6578251829080519060200190620012b5929190620011e2565b509160200191906001019062001294565b5b509050620012d6919062001360565b5090565b8280548282559060005260206000209081019282156200132e579160200282015b828111156200132d5782518290805190602001906200131c929190620011e2565b5091602001919060010190620012fb565b5b5090506200133d919062001360565b5090565b5b808211156200135c57600081600090555060010162001342565b5090565b5b808211156200138457600081816200137a919062001388565b5060010162001361565b5090565b508054620013969062001485565b6000825580601f10620013aa5750620013cb565b601f016020900490600052602060002090810190620013ca919062001341565b5b50565b6000620013db8262001433565b620013e781856200143e565b9350620013f98185602086016200144f565b6200140481620014ea565b840191505092915050565b600060208201905081810360008301526200142b8184620013ce565b905092915050565b600081519050919050565b600082825260208201905092915050565b60005b838110156200146f57808201518184015260208101905062001452565b838111156200147f576000848401525b50505050565b600060028204905060018216806200149e57607f821691505b60208210811415620014b557620014b4620014bb565b5b50919050565b7f4e487b7100000000000000000000000000000000000000000000000000000000600052602260045260246000fd5b6000601f19601f8301169050919050565b613b82806200150b6000396000f3fe608060405234801561001057600080fd5b50600436106101215760003560e01c80636352211e116100ad578063b88d4fde11610071578063b88d4fde14610340578063c575757a1461035c578063c87b56dd1461038c578063de9d132f146103bc578063e985e9c5146103c657610121565b80636352211e1461027657806370a08231146102a657806395d89b41146102d6578063a22cb465146102f4578063b187301f1461031057610121565b8063095ea7b3116100f4578063095ea7b3146101c257806323b872dd146101de5780632de38d68146101fa57806342842e0e1461022a578063514dc8c61461024657610121565b806301ffc9a714610126578063060475901461015657806306fdde0314610174578063081812fc14610192575b600080fd5b610140600480360381019061013b91906126a4565b6103f6565b60405161014d91906133d8565b60405180910390f35b61015e6104d8565b60405161016b9190613673565b60405180910390f35b61017c6104e9565b60405161018991906133f3565b60405180910390f35b6101ac60048036038101906101a791906126f6565b61057b565b6040516101b99190613348565b60405180910390f35b6101dc60048036038101906101d79190612668565b610600565b005b6101f860048036038101906101f39190612562565b610718565b005b610214600480360381019061020f91906126f6565b610778565b60405161022191906133f3565b60405180910390f35b610244600480360381019061023f9190612562565b610896565b005b610260600480360381019061025b91906126f6565b6108b6565b60405161026d91906133f3565b60405180910390f35b610290600480360381019061028b91906126f6565b6109d4565b60405161029d9190613348565b60405180910390f35b6102c060048036038101906102bb91906124fd565b610a86565b6040516102cd9190613673565b60405180910390f35b6102de610b3e565b6040516102eb91906133f3565b60405180910390f35b61030e6004803603810190610309919061262c565b610bd0565b005b61032a600480360381019061032591906126f6565b610d51565b60405161033791906133f3565b60405180910390f35b61035a600480360381019061035591906125b1565b610e6f565b005b610376600480360381019061037191906126f6565b610ed1565b60405161038391906133f3565b60405180910390f35b6103a660048036038101906103a191906126f6565b610fef565b6040516103b391906133f3565b60405180910390f35b6103c4611141565b005b6103e060048036038101906103db9190612526565b61137d565b6040516103ed91906133d8565b60405180910390f35b60007f80ac58cd000000000000000000000000000000000000000000000000000000007bffffffffffffffffffffffffffffffffffffffffffffffffffffffff1916827bffffffffffffffffffffffffffffffffffffffffffffffffffffffff191614806104c157507f5b5e139f000000000000000000000000000000000000000000000000000000007bffffffffffffffffffffffffffffffffffffffffffffffffffffffff1916827bffffffffffffffffffffffffffffffffffffffffffffffffffffffff1916145b806104d157506104d0826114aa565b5b9050919050565b60006104e46007611514565b905090565b6060600080546104f890613912565b80601f016020809104026020016040519081016040528092919081815260200182805461052490613912565b80156105715780601f1061054657610100808354040283529160200191610571565b820191906000526020600020905b81548152906001019060200180831161055457829003601f168201915b5050505050905090565b600061058682611522565b6105c5576040517f08c379a00000000000000000000000000000000000000000000000000000000081526004016105bc906135d3565b60405180910390fd5b6004600083815260200190815260200160002060009054906101000a900473ffffffffffffffffffffffffffffffffffffffff169050919050565b600061060b826109d4565b90508073ffffffffffffffffffffffffffffffffffffffff168373ffffffffffffffffffffffffffffffffffffffff16141561067c576040517f08c379a000000000000000000000000000000000000000000000000000000000815260040161067390613633565b60405180910390fd5b8073ffffffffffffffffffffffffffffffffffffffff1661069b61158e565b73ffffffffffffffffffffffffffffffffffffffff1614806106ca57506106c9816106c461158e565b61137d565b5b610709576040517f08c379a000000000000000000000000000000000000000000000000000000000815260040161070090613513565b60405180910390fd5b6107138383611596565b505050565b61072961072361158e565b8261164f565b610768576040517f08c379a000000000000000000000000000000000000000000000000000000000815260040161075f90613653565b60405180910390fd5b61077383838361172d565b505050565b606060006107ac61078884611989565b60405160200161079891906132e2565b604051602081830303815290604052611b36565b9050600b80549050816107bf919061398d565b9050600b81815481106107fb577f4e487b7100000000000000000000000000000000000000000000000000000000600052603260045260246000fd5b90600052602060002001805461081090613912565b80601f016020809104026020016040519081016040528092919081815260200182805461083c90613912565b80156108895780601f1061085e57610100808354040283529160200191610889565b820191906000526020600020905b81548152906001019060200180831161086c57829003601f168201915b5050505050915050919050565b6108b183838360405180602001604052806000815250610e6f565b505050565b606060006108ea6108c684611989565b6040516020016108d69190613326565b604051602081830303815290604052611b36565b9050600e80549050816108fd919061398d565b9050600e8181548110610939577f4e487b7100000000000000000000000000000000000000000000000000000000600052603260045260246000fd5b90600052602060002001805461094e90613912565b80601f016020809104026020016040519081016040528092919081815260200182805461097a90613912565b80156109c75780601f1061099c576101008083540402835291602001916109c7565b820191906000526020600020905b8154815290600101906020018083116109aa57829003601f168201915b5050505050915050919050565b6000806002600084815260200190815260200160002060009054906101000a900473ffffffffffffffffffffffffffffffffffffffff169050600073ffffffffffffffffffffffffffffffffffffffff168173ffffffffffffffffffffffffffffffffffffffff161415610a7d576040517f08c379a0000000000000000000000000000000000000000000000000000000008152600401610a7490613553565b60405180910390fd5b80915050919050565b60008073ffffffffffffffffffffffffffffffffffffffff168273ffffffffffffffffffffffffffffffffffffffff161415610af7576040517f08c379a0000000000000000000000000000000000000000000000000000000008152600401610aee90613533565b60405180910390fd5b600360008373ffffffffffffffffffffffffffffffffffffffff1673ffffffffffffffffffffffffffffffffffffffff168152602001908152602001600020549050919050565b606060018054610b4d90613912565b80601f0160208091040260200160405190810160405280929190818152602001828054610b7990613912565b8015610bc65780601f10610b9b57610100808354040283529160200191610bc6565b820191906000526020600020905b815481529060010190602001808311610ba957829003601f168201915b5050505050905090565b610bd861158e565b73ffffffffffffffffffffffffffffffffffffffff168273ffffffffffffffffffffffffffffffffffffffff161415610c46576040517f08c379a0000000000000000000000000000000000000000000000000000000008152600401610c3d906134d3565b60405180910390fd5b8060056000610c5361158e565b73ffffffffffffffffffffffffffffffffffffffff1673ffffffffffffffffffffffffffffffffffffffff16815260200190815260200160002060008473ffffffffffffffffffffffffffffffffffffffff1673ffffffffffffffffffffffffffffffffffffffff16815260200190815260200160002060006101000a81548160ff0219169083151502179055508173ffffffffffffffffffffffffffffffffffffffff16610d0061158e565b73ffffffffffffffffffffffffffffffffffffffff167f17307eab39ab6107e8899845ad3d59bd9653f200f220920489ca2b5937696c3183604051610d4591906133d8565b60405180910390a35050565b60606000610d85610d6184611989565b604051602001610d71919061327b565b604051602081830303815290604052611b36565b9050600c8054905081610d98919061398d565b9050600c8181548110610dd4577f4e487b7100000000000000000000000000000000000000000000000000000000600052603260045260246000fd5b906000526020600020018054610de990613912565b80601f0160208091040260200160405190810160405280929190818152602001828054610e1590613912565b8015610e625780601f10610e3757610100808354040283529160200191610e62565b820191906000526020600020905b815481529060010190602001808311610e4557829003601f168201915b5050505050915050919050565b610e80610e7a61158e565b8361164f565b610ebf576040517f08c379a0000000000000000000000000000000000000000000000000000000008152600401610eb690613653565b60405180910390fd5b610ecb84848484611b69565b50505050565b60606000610f05610ee184611989565b604051602001610ef19190613259565b604051602081830303815290604052611b36565b9050600d8054905081610f18919061398d565b9050600d8181548110610f54577f4e487b7100000000000000000000000000000000000000000000000000000000600052603260045260246000fd5b906000526020600020018054610f6990613912565b80601f0160208091040260200160405190810160405280929190818152602001828054610f9590613912565b8015610fe25780601f10610fb757610100808354040283529160200191610fe2565b820191906000526020600020905b815481529060010190602001808311610fc557829003601f168201915b5050505050915050919050565b6060610ffa82611522565b611039576040517f08c379a0000000000000000000000000000000000000000000000000000000008152600401611030906135b3565b60405180910390fd5b600060066000848152602001908152602001600020805461105990613912565b80601f016020809104026020016040519081016040528092919081815260200182805461108590613912565b80156110d25780601f106110a7576101008083540402835291602001916110d2565b820191906000526020600020905b8154815290600101906020018083116110b557829003601f168201915b5050505050905060006110e3611bc5565b90506000815114156110f957819250505061113c565b60008251111561112e5780826040516020016111169291906131a5565b6040516020818303038152906040529250505061113c565b61113784611bdc565b925050505b919050565b600061114b6104d8565b90506008548110611191576040517f08c379a000000000000000000000000000000000000000000000000000000000815260040161118890613473565b60405180910390fd5b600061119c82610778565b905060006111a983610d51565b905060006111b684610ed1565b905060008383836040516020016111cf939291906131c9565b604051602081830303815290604052905060006111eb866108b6565b90506000600982600a856040516020016112089493929190613210565b6040516020818303038152906040529050600061124d8461122884611c83565b60405160200161123992919061329d565b604051602081830303815290604052611c83565b90506000816040516020016112629190613304565b60405160208183030381529060405290506112b16040518060400160405280601581526020017f0a2d2d2d2d2d2d2d2d2d2d2d2d2d2d2d2d2d2d2d2d0000000000000000000000815250611411565b6112ba81611411565b6112f86040518060400160405280601581526020017f2d2d2d2d2d2d2d2d2d2d2d2d2d2d2d2d2d2d2d2d0a0000000000000000000000815250611411565b611302338a611e41565b61130c8982611e5f565b61132f604051806060016040528060258152602001613ae8602591398a33611ed3565b6113396007611f72565b7febb98688741ffa4c7589bf325de30cf7becb63de567842e1ccdb6cb949fdc82c338a60405161136a9291906133af565b60405180910390a1505050505050505050565b6000600560008473ffffffffffffffffffffffffffffffffffffffff1673ffffffffffffffffffffffffffffffffffffffff16815260200190815260200160002060008373ffffffffffffffffffffffffffffffffffffffff1673ffffffffffffffffffffffffffffffffffffffff16815260200190815260200160002060009054906101000a900460ff16905092915050565b6114a78160405160240161142591906133f3565b6040516020818303038152906040527f41304fac000000000000000000000000000000000000000000000000000000007bffffffffffffffffffffffffffffffffffffffffffffffffffffffff19166020820180517bffffffffffffffffffffffffffffffffffffffffffffffffffffffff8381831617835250505050611f88565b50565b60007f01ffc9a7000000000000000000000000000000000000000000000000000000007bffffffffffffffffffffffffffffffffffffffffffffffffffffffff1916827bffffffffffffffffffffffffffffffffffffffffffffffffffffffff1916149050919050565b600081600001549050919050565b60008073ffffffffffffffffffffffffffffffffffffffff166002600084815260200190815260200160002060009054906101000a900473ffffffffffffffffffffffffffffffffffffffff1673ffffffffffffffffffffffffffffffffffffffff1614159050919050565b600033905090565b816004600083815260200190815260200160002060006101000a81548173ffffffffffffffffffffffffffffffffffffffff021916908373ffffffffffffffffffffffffffffffffffffffff160217905550808273ffffffffffffffffffffffffffffffffffffffff16611609836109d4565b73ffffffffffffffffffffffffffffffffffffffff167f8c5be1e5ebec7d5bd14f71427d1e84f3dd0314c0f7b2291e5b200ac8c7c3b92560405160405180910390a45050565b600061165a82611522565b611699576040517f08c379a0000000000000000000000000000000000000000000000000000000008152600401611690906134f3565b60405180910390fd5b60006116a4836109d4565b90508073ffffffffffffffffffffffffffffffffffffffff168473ffffffffffffffffffffffffffffffffffffffff16148061171357508373ffffffffffffffffffffffffffffffffffffffff166116fb8461057b565b73ffffffffffffffffffffffffffffffffffffffff16145b806117245750611723818561137d565b5b91505092915050565b8273ffffffffffffffffffffffffffffffffffffffff1661174d826109d4565b73ffffffffffffffffffffffffffffffffffffffff16146117a3576040517f08c379a000000000000000000000000000000000000000000000000000000000815260040161179a906135f3565b60405180910390fd5b600073ffffffffffffffffffffffffffffffffffffffff168273ffffffffffffffffffffffffffffffffffffffff161415611813576040517f08c379a000000000000000000000000000000000000000000000000000000000815260040161180a906134b3565b60405180910390fd5b61181e838383611fb1565b611829600082611596565b6001600360008573ffffffffffffffffffffffffffffffffffffffff1673ffffffffffffffffffffffffffffffffffffffff16815260200190815260200160002060008282546118799190613828565b925050819055506001600360008473ffffffffffffffffffffffffffffffffffffffff1673ffffffffffffffffffffffffffffffffffffffff16815260200190815260200160002060008282546118d09190613747565b92505081905550816002600083815260200190815260200160002060006101000a81548173ffffffffffffffffffffffffffffffffffffffff021916908373ffffffffffffffffffffffffffffffffffffffff160217905550808273ffffffffffffffffffffffffffffffffffffffff168473ffffffffffffffffffffffffffffffffffffffff167fddf252ad1be2c89b69c2b068fc378daa952ba7f163c4a11628f55a4df523b3ef60405160405180910390a4505050565b606060008214156119d1576040518060400160405280600181526020017f30000000000000000000000000000000000000000000000000000000000000008152509050611b31565b600082905060005b60008214611a035780806119ec90613944565b915050600a826119fc919061379d565b91506119d9565b60008167ffffffffffffffff811115611a45577f4e487b7100000000000000000000000000000000000000000000000000000000600052604160045260246000fd5b6040519080825280601f01601f191660200182016040528015611a775781602001600182028036833780820191505090505b5090505b60008514611b2a57600182611a909190613828565b9150600a85611a9f919061398d565b6030611aab9190613747565b60f81b818381518110611ae7577f4e487b7100000000000000000000000000000000000000000000000000000000600052603260045260246000fd5b60200101907effffffffffffffffffffffffffffffffffffffffffffffffffffffffffffff1916908160001a905350600a85611b23919061379d565b9450611a7b565b8093505050505b919050565b600081604051602001611b49919061318e565b6040516020818303038152906040528051906020012060001c9050919050565b611b7484848461172d565b611b8084848484611fb6565b611bbf576040517f08c379a0000000000000000000000000000000000000000000000000000000008152600401611bb690613453565b60405180910390fd5b50505050565b606060405180602001604052806000815250905090565b6060611be782611522565b611c26576040517f08c379a0000000000000000000000000000000000000000000000000000000008152600401611c1d90613613565b60405180910390fd5b6000611c30611bc5565b90506000815111611c505760405180602001604052806000815250611c7b565b80611c5a84611989565b604051602001611c6b9291906131a5565b6040516020818303038152906040525b915050919050565b60606000825190506000811415611cac5760405180602001604052806000815250915050611e3c565b60006003600283611cbd9190613747565b611cc7919061379d565b6004611cd391906137ce565b90506000602082611ce49190613747565b67ffffffffffffffff811115611d23577f4e487b7100000000000000000000000000000000000000000000000000000000600052604160045260246000fd5b6040519080825280601f01601f191660200182016040528015611d555781602001600182028036833780820191505090505b5090506000604051806060016040528060408152602001613b0d604091399050600181016020830160005b86811015611df95760038101905062ffffff818a015116603f8160121c168401518060081b905060ff603f83600c1c1686015116810190508060081b905060ff603f8360061c1686015116810190508060081b905060ff603f831686015116810190508060e01b90508084526004840193505050611d80565b506003860660018114611e135760028114611e2357611e2e565b613d3d60f01b6002830352611e2e565b603d60f81b60018303525b508484525050819450505050505b919050565b611e5b82826040518060200160405280600081525061214d565b5050565b611e6882611522565b611ea7576040517f08c379a0000000000000000000000000000000000000000000000000000000008152600401611e9e90613573565b60405180910390fd5b80600660008481526020019081526020016000209080519060200190611ece929190612389565b505050565b611f6d838383604051602401611eeb93929190613415565b6040516020818303038152906040527fe3849f79000000000000000000000000000000000000000000000000000000007bffffffffffffffffffffffffffffffffffffffffffffffffffffffff19166020820180517bffffffffffffffffffffffffffffffffffffffffffffffffffffffff8381831617835250505050611f88565b505050565b6001816000016000828254019250508190555050565b60008151905060006a636f6e736f6c652e6c6f679050602083016000808483855afa5050505050565b505050565b6000611fd78473ffffffffffffffffffffffffffffffffffffffff166121a8565b15612140578373ffffffffffffffffffffffffffffffffffffffff1663150b7a0261200061158e565b8786866040518563ffffffff1660e01b81526004016120229493929190613363565b602060405180830381600087803b15801561203c57600080fd5b505af192505050801561206d57506040513d601f19601f8201168201806040525081019061206a91906126cd565b60015b6120f0573d806000811461209d576040519150601f19603f3d011682016040523d82523d6000602084013e6120a2565b606091505b506000815114156120e8576040517f08c379a00000000000000000000000000000000000000000000000000000000081526004016120df90613453565b60405180910390fd5b805181602001fd5b63150b7a0260e01b7bffffffffffffffffffffffffffffffffffffffffffffffffffffffff1916817bffffffffffffffffffffffffffffffffffffffffffffffffffffffff191614915050612145565b600190505b949350505050565b61215783836121bb565b6121646000848484611fb6565b6121a3576040517f08c379a000000000000000000000000000000000000000000000000000000000815260040161219a90613453565b60405180910390fd5b505050565b600080823b905060008111915050919050565b600073ffffffffffffffffffffffffffffffffffffffff168273ffffffffffffffffffffffffffffffffffffffff16141561222b576040517f08c379a000000000000000000000000000000000000000000000000000000000815260040161222290613593565b60405180910390fd5b61223481611522565b15612274576040517f08c379a000000000000000000000000000000000000000000000000000000000815260040161226b90613493565b60405180910390fd5b61228060008383611fb1565b6001600360008473ffffffffffffffffffffffffffffffffffffffff1673ffffffffffffffffffffffffffffffffffffffff16815260200190815260200160002060008282546122d09190613747565b92505081905550816002600083815260200190815260200160002060006101000a81548173ffffffffffffffffffffffffffffffffffffffff021916908373ffffffffffffffffffffffffffffffffffffffff160217905550808273ffffffffffffffffffffffffffffffffffffffff16600073ffffffffffffffffffffffffffffffffffffffff167fddf252ad1be2c89b69c2b068fc378daa952ba7f163c4a11628f55a4df523b3ef60405160405180910390a45050565b82805461239590613912565b90600052602060002090601f0160209004810192826123b757600085556123fe565b82601f106123d057805160ff19168380011785556123fe565b828001600101855582156123fe579182015b828111156123fd5782518255916020019190600101906123e2565b5b50905061240b919061240f565b5090565b5b80821115612428576000816000905550600101612410565b5090565b600061243f61243a846136bf565b61368e565b90508281526020810184848401111561245757600080fd5b6124628482856138d0565b509392505050565b60008135905061247981613a8b565b92915050565b60008135905061248e81613aa2565b92915050565b6000813590506124a381613ab9565b92915050565b6000815190506124b881613ab9565b92915050565b600082601f8301126124cf57600080fd5b81356124df84826020860161242c565b91505092915050565b6000813590506124f781613ad0565b92915050565b60006020828403121561250f57600080fd5b600061251d8482850161246a565b91505092915050565b6000806040838503121561253957600080fd5b60006125478582860161246a565b92505060206125588582860161246a565b9150509250929050565b60008060006060848603121561257757600080fd5b60006125858682870161246a565b93505060206125968682870161246a565b92505060406125a7868287016124e8565b9150509250925092565b600080600080608085870312156125c757600080fd5b60006125d58782880161246a565b94505060206125e68782880161246a565b93505060406125f7878288016124e8565b925050606085013567ffffffffffffffff81111561261457600080fd5b612620878288016124be565b91505092959194509250565b6000806040838503121561263f57600080fd5b600061264d8582860161246a565b925050602061265e8582860161247f565b9150509250929050565b6000806040838503121561267b57600080fd5b60006126898582860161246a565b925050602061269a858286016124e8565b9150509250929050565b6000602082840312156126b657600080fd5b60006126c484828501612494565b91505092915050565b6000602082840312156126df57600080fd5b60006126ed848285016124a9565b91505092915050565b60006020828403121561270857600080fd5b6000612716848285016124e8565b91505092915050565b6127288161385c565b82525050565b6127378161386e565b82525050565b600061274882613704565b612752818561371a565b93506127628185602086016138df565b61276b81613a7a565b840191505092915050565b60006127818261370f565b61278b818561372b565b935061279b8185602086016138df565b6127a481613a7a565b840191505092915050565b60006127ba8261370f565b6127c4818561373c565b93506127d48185602086016138df565b80840191505092915050565b600081546127ed81613912565b6127f7818661373c565b94506001821660008114612812576001811461282357612856565b60ff19831686528186019350612856565b61282c856136ef565b60005b8381101561284e5781548189015260018201915060208101905061282f565b838801955050505b50505092915050565b600061286c60328361372b565b91507f4552433732313a207472616e7366657220746f206e6f6e20455243373231526560008301527f63656976657220696d706c656d656e74657200000000000000000000000000006020830152604082019050919050565b60006128d2601a8361372b565b91507f4d6178206e756d62657220616c7265616479206d696e7465642e0000000000006000830152602082019050919050565b6000612912601c8361372b565b91507f4552433732313a20746f6b656e20616c7265616479206d696e746564000000006000830152602082019050919050565b6000612952600a8361373c565b91507f54484952445f574f5244000000000000000000000000000000000000000000006000830152600a82019050919050565b600061299260248361372b565b91507f4552433732313a207472616e7366657220746f20746865207a65726f2061646460008301527f72657373000000000000000000000000000000000000000000000000000000006020830152604082019050919050565b60006129f860198361372b565b91507f4552433732313a20617070726f766520746f2063616c6c6572000000000000006000830152602082019050919050565b6000612a3860638361373c565b91507f222c20226465736372697074696f6e223a20224120686967686c79206163636c60008301527f61696d656420636f6c6c656374696f6e206f6620737175617265732e222c202260208301527f696d616765223a2022646174613a696d6167652f7376672b786d6c3b6261736560408301527f36342c00000000000000000000000000000000000000000000000000000000006060830152606382019050919050565b6000612aea600b8361373c565b91507f5345434f4e445f574f52440000000000000000000000000000000000000000006000830152600b82019050919050565b6000612b2a602c8361372b565b91507f4552433732313a206f70657261746f7220717565727920666f72206e6f6e657860008301527f697374656e7420746f6b656e00000000000000000000000000000000000000006020830152604082019050919050565b6000612b90600d8361373c565b91507f3c2f746578743e3c2f7376673e000000000000000000000000000000000000006000830152600d82019050919050565b6000612bd060388361372b565b91507f4552433732313a20617070726f76652063616c6c6572206973206e6f74206f7760008301527f6e6572206e6f7220617070726f76656420666f7220616c6c00000000000000006020830152604082019050919050565b6000612c36602a8361372b565b91507f4552433732313a2062616c616e636520717565727920666f7220746865207a6560008301527f726f2061646472657373000000000000000000000000000000000000000000006020830152604082019050919050565b6000612c9c60298361372b565b91507f4552433732313a206f776e657220717565727920666f72206e6f6e657869737460008301527f656e7420746f6b656e00000000000000000000000000000000000000000000006020830152604082019050919050565b6000612d02602e8361372b565b91507f45524337323155524953746f726167653a2055524920736574206f66206e6f6e60008301527f6578697374656e7420746f6b656e0000000000000000000000000000000000006020830152604082019050919050565b6000612d6860028361373c565b91507f227d0000000000000000000000000000000000000000000000000000000000006000830152600282019050919050565b6000612da860208361372b565b91507f4552433732313a206d696e7420746f20746865207a65726f20616464726573736000830152602082019050919050565b6000612de860318361372b565b91507f45524337323155524953746f726167653a2055524920717565727920666f722060008301527f6e6f6e6578697374656e7420746f6b656e0000000000000000000000000000006020830152604082019050919050565b6000612e4e602c8361372b565b91507f4552433732313a20617070726f76656420717565727920666f72206e6f6e657860008301527f697374656e7420746f6b656e00000000000000000000000000000000000000006020830152604082019050919050565b6000612eb460298361372b565b91507f4552433732313a207472616e73666572206f6620746f6b656e2074686174206960008301527f73206e6f74206f776e00000000000000000000000000000000000000000000006020830152604082019050919050565b6000612f1a602f8361372b565b91507f4552433732314d657461646174613a2055524920717565727920666f72206e6f60008301527f6e6578697374656e7420746f6b656e00000000000000000000000000000000006020830152604082019050919050565b6000612f80600a8361373c565b91507f7b226e616d65223a2022000000000000000000000000000000000000000000006000830152600a82019050919050565b6000612fc060218361372b565b91507f4552433732313a20617070726f76616c20746f2063757272656e74206f776e6560008301527f72000000000000000000000000000000000000000000000000000000000000006020830152604082019050919050565b6000613026600a8361373c565b91507f46495253545f574f5244000000000000000000000000000000000000000000006000830152600a82019050919050565b6000613066601d8361373c565b91507f646174613a6170706c69636174696f6e2f6a736f6e3b6261736536342c0000006000830152601d82019050919050565b60006130a660318361372b565b91507f4552433732313a207472616e736665722063616c6c6572206973206e6f74206f60008301527f776e6572206e6f7220617070726f7665640000000000000000000000000000006020830152604082019050919050565b600061310c60018361373c565b91507f5f000000000000000000000000000000000000000000000000000000000000006000830152600182019050919050565b600061314c60058361373c565b91507f434f4c4f520000000000000000000000000000000000000000000000000000006000830152600582019050919050565b613188816138c6565b82525050565b600061319a82846127af565b915081905092915050565b60006131b182856127af565b91506131bd82846127af565b91508190509392505050565b60006131d582866127af565b91506131e0826130ff565b91506131ec82856127af565b91506131f7826130ff565b915061320382846127af565b9150819050949350505050565b600061321c82876127e0565b915061322882866127af565b915061323482856127e0565b915061324082846127af565b915061324b82612b83565b915081905095945050505050565b600061326482612945565b915061327082846127af565b915081905092915050565b600061328682612add565b915061329282846127af565b915081905092915050565b60006132a882612f73565b91506132b482856127af565b91506132bf82612a2b565b91506132cb82846127af565b91506132d682612d5b565b91508190509392505050565b60006132ed82613019565b91506132f982846127af565b915081905092915050565b600061330f82613059565b915061331b82846127af565b915081905092915050565b60006133318261313f565b915061333d82846127af565b915081905092915050565b600060208201905061335d600083018461271f565b92915050565b6000608082019050613378600083018761271f565b613385602083018661271f565b613392604083018561317f565b81810360608301526133a4818461273d565b905095945050505050565b60006040820190506133c4600083018561271f565b6133d1602083018461317f565b9392505050565b60006020820190506133ed600083018461272e565b92915050565b6000602082019050818103600083015261340d8184612776565b905092915050565b6000606082019050818103600083015261342f8186612776565b905061343e602083018561317f565b61344b604083018461271f565b949350505050565b6000602082019050818103600083015261346c8161285f565b9050919050565b6000602082019050818103600083015261348c816128c5565b9050919050565b600060208201905081810360008301526134ac81612905565b9050919050565b600060208201905081810360008301526134cc81612985565b9050919050565b600060208201905081810360008301526134ec816129eb565b9050919050565b6000602082019050818103600083015261350c81612b1d565b9050919050565b6000602082019050818103600083015261352c81612bc3565b9050919050565b6000602082019050818103600083015261354c81612c29565b9050919050565b6000602082019050818103600083015261356c81612c8f565b9050919050565b6000602082019050818103600083015261358c81612cf5565b9050919050565b600060208201905081810360008301526135ac81612d9b565b9050919050565b600060208201905081810360008301526135cc81612ddb565b9050919050565b600060208201905081810360008301526135ec81612e41565b9050919050565b6000602082019050818103600083015261360c81612ea7565b9050919050565b6000602082019050818103600083015261362c81612f0d565b9050919050565b6000602082019050818103600083015261364c81612fb3565b9050919050565b6000602082019050818103600083015261366c81613099565b9050919050565b6000602082019050613688600083018461317f565b92915050565b6000604051905081810181811067ffffffffffffffff821117156136b5576136b4613a4b565b5b8060405250919050565b600067ffffffffffffffff8211156136da576136d9613a4b565b5b601f19601f8301169050602081019050919050565b60008190508160005260206000209050919050565b600081519050919050565b600081519050919050565b600082825260208201905092915050565b600082825260208201905092915050565b600081905092915050565b6000613752826138c6565b915061375d836138c6565b9250827fffffffffffffffffffffffffffffffffffffffffffffffffffffffffffffffff03821115613792576137916139be565b5b828201905092915050565b60006137a8826138c6565b91506137b3836138c6565b9250826137c3576137c26139ed565b5b828204905092915050565b60006137d9826138c6565b91506137e4836138c6565b9250817fffffffffffffffffffffffffffffffffffffffffffffffffffffffffffffffff048311821515161561381d5761381c6139be565b5b828202905092915050565b6000613833826138c6565b915061383e836138c6565b925082821015613851576138506139be565b5b828203905092915050565b6000613867826138a6565b9050919050565b60008115159050919050565b60007fffffffff0000000000000000000000000000000000000000000000000000000082169050919050565b600073ffffffffffffffffffffffffffffffffffffffff82169050919050565b6000819050919050565b82818337600083830152505050565b60005b838110156138fd5780820151818401526020810190506138e2565b8381111561390c576000848401525b50505050565b6000600282049050600182168061392a57607f821691505b6020821081141561393e5761393d613a1c565b5b50919050565b600061394f826138c6565b91507fffffffffffffffffffffffffffffffffffffffffffffffffffffffffffffffff821415613982576139816139be565b5b600182019050919050565b6000613998826138c6565b91506139a3836138c6565b9250826139b3576139b26139ed565b5b828206905092915050565b7f4e487b7100000000000000000000000000000000000000000000000000000000600052601160045260246000fd5b7f4e487b7100000000000000000000000000000000000000000000000000000000600052601260045260246000fd5b7f4e487b7100000000000000000000000000000000000000000000000000000000600052602260045260246000fd5b7f4e487b7100000000000000000000000000000000000000000000000000000000600052604160045260246000fd5b6000601f19601f8301169050919050565b613a948161385c565b8114613a9f57600080fd5b50565b613aab8161386e565b8114613ab657600080fd5b50565b613ac28161387a565b8114613acd57600080fd5b50565b613ad9816138c6565b8114613ae457600080fd5b5056fe416e204e465420772f20494420257320686173206265656e206d696e74656420746f2025734142434445464748494a4b4c4d4e4f505152535455565758595a6162636465666768696a6b6c6d6e6f707172737475767778797a303132333435363738392b2fa2646970667358221220fb48673fef3247a2669c31e7360f33ae1b3545aa6da8d1197cd1d8d03be8eb6964736f6c634300080000333c73766720786d6c6e733d27687474703a2f2f7777772e77332e6f72672f323030302f73766727207072657365727665417370656374526174696f3d27784d696e594d696e206d656574272076696577426f783d273020302033353020333530273e3c7374796c653e2e62617365207b2066696c6c3a2077686974653b20666f6e742d66616d696c793a2073657269663b20666f6e742d73697a653a20323470783b207d3c2f7374796c653e3c726563742077696474683d273130302527206865696768743d2731303025272066696c6c3d27272f3e3c7465787420783d273530252720793d273530252720636c6173733d27626173652720646f6d696e616e742d626173656c696e653d276d6964646c652720746578742d616e63686f723d276d6964646c65273e",
  "linkReferences": {},
  "deployedLinkReferences": {}
}